:100000000C94B5020C94D2020C94D2020C94D2023D
:100010000C94D2020C94D2020C94D2020C94D20210
:100020000C94D2020C94D2020C94321D0C94EE1C4F
:100030000C942F1E0C94D2020C94D2020C94D20277
:100040000C94D2020C94D2020C94D2020C94D202E0
:100050000C94D2020C940B1E0C94D2020C94D2027B
:100060000C94D2020C94D2020C94D2020C94D202C0
:100070000C94D2020C94D2020C94D2020C94D202B0
:100080000C94D2020C94D2020C94D2020C94D202A0
:100090000C94D2020C94D2020C94D2020C94D20290
:1000A0000C94D2020C94D2020C94D20205010902E3
:1000B000A10185020901A1000509190129081500FE
:1000C0002501950875018102050109300931158165
:1000D000257F95027508810609381581257F9501D0
:1000E00075088106050C0A38021581257F95017572
:1000F000088106C0C005010980A101850319012AF4
:10010000B700150126B700950175108100C0050CD8
:100110000901A101850419012AA002150126A002E6
:10012000950175108100C00660FF0961A101096297
:10013000150026FF00952075088102096315002629
:10014000FF00952075089102C005010906A101056F
:100150000719E029E7150025019508750181029529
:1001600001750881010507190029FF150026FF0008
:100170009506750881000508190129051500250156
:10018000950575019102950175039101C00000006C
:10019000000000000000000000000000000000005F
:1001A000000000000000000000000000000000004F
:1001B000007E0F00D4FFFFFFC700000078000000A2
:1001C00000000000002A2B280000000000000000B2
:1001D000000000000000000029000000002C1E3478
:1001E00020212224342627252E362D3738271E1F7E
:1001F000202122232425263333362E37381F0405A9
:10020000060708090A0B0C0D0E0F10111213141516
:10021000161718191A1B1C1D2F3130232D350405F4
:10022000060708090A0B0C0D0E0F101112131415F6
:10023000161718191A1B1C1D2F3130354C1E001FA4
:100240000020002100220023001E001F00200021AA
:1002500000220023001E001F002000210022002396
:10026000001E001F0020002100220023001E001F8E
:100270000020002100220023001E001F002000217A
:1002800000220023001E001F002000210022002366
:10029000001E001F0020002100220023001E001F5E
:1002A0000020002100220023001E001F002000214A
:1002B00000220023001E001F002000210022002336
:1002C000001E001F0020002100220023001E001F2E
:1002D0000020002100220023001E001F002000211A
:1002E00000220023001E001F002000210022002306
:1002F000001E001F0020002100220023001E001FFE
:100300000020002100220023001E001F00200021E9
:1003100000220023001E001F0020002100220023D5
:10032000001E001F0020002100220023001E001FCD
:100330000020002100220023001E001F00200021B9
:1003400000220023001E001F0020002100220023A5
:10035000001E001F0020002100220023001E001F9D
:100360000020002100220023001E001F0020002189
:1003700000220023001E001F002000210022002375
:10038000001E001F0020002100220023001E001F6D
:100390000020002100220023001E001F0020002159
:1003A00000220023001E001F002000210022002345
:1003B000001E001F0020002100220023001E001F3D
:1003C0000020002100220023001E001F0020002129
:1003D00000220023001E001F002000210022002315
:1003E000001E001F0020002100220023001E001F0D
:1003F0000020002100220023001E001F00200021F9
:1004000000220023001E001F0020002100220023E4
:10041000001E001F0020002100220023001E001FDC
:100420000020002100220023001E001F00200021C8
:1004300000220023001E001F0020002100220023B4
:10044000001E001F0020002100220023001E001FAC
:100450000020002100220023000902BF0005010046
:10046000A0FA0904000001030101000921110100A3
:10047000012244000705810308000109040100026C
:10048000030000000921110100012222000705825A
:1004900003200001070503032000010904020001F5
:1004A00003000000092111010001227B00070584DF
:1004B00003200001080B03020101000009040300EE
:1004C00000010100000924010001090001040904E0
:1004D000040002010300000724010001410006247A
:1004E00002010100062402020200092403010301A3
:1004F00002010009240302040101010009050602AA
:1005000040000500000525010101090585024000A4
:10051000050000052501010312010002000000088A
:10052000ABAA0100000101020001280361005F0085
:10053000700069006500630065005F006F00660081
:100540005F006B006500790062006F00610072005F
:100550006400000010036100740061007200750007
:100560006E006F0000000403090411241FBECFEFCA
:10057000DAE0DEBFCDBF11E0A0E0B1E0E4EBFAE4E9
:1005800002C005900D92AC37B107D9F723E0ACE774
:10059000B1E001C01D92A73CB207E1F70E94561ED0
:1005A0000C9406250C9400000F931F939B01305E62
:1005B0008901000F012F001F110B11952F77482F74
:1005C000406EE091D702F091D80263E070E087EDD1
:1005D00092E009951F910F9108950F93262F042FF4
:1005E0000F77482F406BE091D702F091D80263E07B
:1005F00070E087ED92E009950F910895482F2091C2
:10060000D60290919D0257E0291302C080E0089520
:1006100030E0529FF001539FF00D1124E256FD4F40
:100620008181681306C08081481303C085818111D0
:10063000EECF2F5F3F4F2770E7CFA3E0B0E0E3E2BC
:10064000F3E00C947A247C01162FD42EC22E8091D4
:10065000FC02843071F5E091F102F091F2023097E2
:10066000C1F1C701019763E070E00E943B24CB0118
:10067000880F991F860F971F19834A83CB824E2DAF
:10068000481B9E012F5F3F4FBC0187ED92E009950B
:10069000E091F502F091F602309739F00C2D2D2DF6
:1006A000412FB70187ED92E009952396E8E00C947D
:1006B000962482E0E816F10409F45AC083E0E816B3
:1006C000F104A9F081E0E816F10409F484C0F12CEA
:1006D000E12CE091F302F091F4023097C9F20C2D75
:1006E0002D2D412FB70187ED92E00995D1CF862FAF
:1006F000807F803A11F188F48038D1F0E091DB02FC
:10070000F091DC02803929F7309719F3123F49F153
:100710002C2D4D2D612F6F7027C0803E99F0803FAA
:10072000B1F0E091D902F091DA02803B91F6ECCF82
:10073000E091DD02F091DE02E7CFE091DF02F0917F
:10074000E002E2CFE091E102F091E202DDCF623F10
:1007500009F0BFCFE091E302F091E402309709F491
:10076000B8CF2C2D4D2D62EF87ED92E0099590CFFB
:10077000862F807F803DB9F0803FD1F0E091E50287
:10078000F091E602803C09F0A4CF309709F4A1CFA4
:10079000812F8D7F4D2D612F6F70813FC9F087EDC7
:1007A00092E0099575CFE091E702F091E802EDCF74
:1007B000E091E902F091EA02633F39F0613F09F00C
:1007C00088CFE091EB02F091EC02309709F481CFF1
:1007D0004D2D612FE4CFE091ED02F091EE02683FE4
:1007E00038F4663F09F075CFE091EF02F091F00226
:1007F000309709F46ECF612F87ED92E0099548CFCD
:10080000E8EDF0E080818E7F80831092E20010920C
:10081000DA001092E100A0EEB0E08C9181608C9340
:1008200080818F77808319BCA7EDB0E08C918E7F9B
:100830008C9380818F7E8083109286020895209110
:10084000E4003091E50095E6A9012091EC00822FAB
:10085000817020FF06C08091E80080FF06C080E024
:1008600008952091E80022FD1AC080919302882308
:1008700089F0853089F08091EB0085FD0FC02091D3
:10088000E4003091E50042175307F9F29150E1F688
:1008900084E0089582E0089583E0089581E008955A
:1008A000EF92FF920F931F93CF937C018B010E94D5
:1008B0001F04C82F811117C08091E80085FD0BC06F
:1008C0008091E8008E778093E8000E941F048823BF
:1008D00099F3C82F08C0F70181917F018093F1003F
:1008E0000150110949F78C2FCF911F910F91FF9063
:1008F000EF900895EF92FF920F931F93CF937C0197
:100900008B010E941F04C82F811117C08091E8003D
:1009100085FD0BC08091E8008B778093E8000E94F2
:100920001F04882399F3C82F08C08091F100F701B4
:1009300081937F010150110949F78C2FCF911F91AD
:100940000F91FF90EF9008958091950287FF13C05B
:100950008091E80082FF06C08091E8008B77809349
:10096000E80004C0809193028111F2CF0895809134
:1009700093028823D9F38091E80080FFF8CF80911B
:10098000E8008E77ECCF982F9093E900242F762FF4
:1009900050E0891731F07091EC002091ED005091FA
:1009A000F00021FD07C09F5F973071F78093E90049
:1009B00081E008953091EB003E7F3093EB00309161
:1009C000ED003D7F3093ED003091EB0031603093CE
:1009D000EB007093EC002093ED005093F000209119
:1009E000EE0027FDE0CF80E00895B0E0A0E0EBEF5F
:1009F000F4E00C947A24C8EDD0E088818F7E88835F
:100A0000E7EDF0E080818160808384E082BF81E057
:100A10008093860288818E7F888302EE10E0F80141
:100A200010821092DA0081EEC82ED12CF6011082CD
:100A300088818F77888388818068888388818F7D8B
:100A4000888319BC10929302109294021092920221
:100A50001092910290EEE92EF12CF70180818B7FAC
:100A6000808388818160888342E060E080E00E942A
:100A7000C304F60180818E7F8083F80180818160CC
:100A80008083808188608083F70180818E7F80836E
:100A9000888180618883CDB7DEB7E8E00C94962426
:100AA000FC0180919B0290919C0286179707A0F011
:100AB0006115710529F49091E8009E779093E80004
:100AC00090E06115710551F4911108C08091E80022
:100AD00082FF34C080E00895BC01F2CF8091930280
:100AE0008823C1F18530C1F18091E80083FD30C0D9
:100AF0008091E80082FDEACF8091E80080FFE1CF9D
:100B00008091F3002091F200382F6115710519F0E2
:100B10002830310558F091E02830310509F090E097
:100B20002091E8002E772093E800CBCF819180932D
:100B3000F100615071092F5F3F4FE7CF8091930221
:100B4000882341F0853041F08091E80083FFBECFDB
:100B500081E0089582E0089583E0089580918802FD
:100B6000089587E797E7909301088093000888E14C
:100B70009AE00FB6F894A895809360000FBE90930A
:100B80006000FFCF9C014FB7F89480918202909152
:100B90008302A0918402B09185024FBF821B930B08
:100BA00008952FB7F8948091820290918302A091CA
:100BB0008402B09185022FBF08959C01FC013296FA
:100BC0009FEF80E04191461751F09F3F19F441118A
:100BD00001C0982F8F5F8630A9F79F3F09F40895D1
:100BE000290F311D97FD3A95F90162830895A3E01D
:100BF000B0E0EDEFF5E00C94802420917F0230917D
:100C0000800228173907A1F09093800280937F0219
:100C1000E0917D02F0917E02309751F024E029832B
:100C20009B838A830680F781E02DCE01019609958A
:100C30002396E2E00C949C24A3E0B0E0E2E2F6E02C
:100C40000C94802420917B0230917C022817390774
:100C5000A1F090937C0280937B02E0917D02F09161
:100C60007E02309751F023E029839B838A8306809C
:100C7000F781E02DCE01019609952396E2E00C94D0
:100C80009C24E0917D02F0917E02309729F0019042
:100C9000F081E02D0995089580E008950E94D10526
:100CA0009C019091770280917802982B21F03093EB
:100CB0007402209373029091790280917A02982BAA
:100CC00021F03093720220937102E0917D02F09145
:100CD0007E02309749F082E0809375020480F581AE
:100CE000E02D85E792E0099508958091700280FDDE
:100CF00016C081FD16C082FD16C080916F02882348
:100D0000A1F0883280F428E0829FC001112468E2BB
:100D100070E00E944F24862F672B39F0089582E0FF
:100D2000089584E0089588E0089581E00895809111
:100D3000700280FD14C081FD14C082FD16C0809138
:100D40006E02882381F08E3180F420E5829FC001FD
:100D500011246EE170E00E944F24862F089584E1F3
:100D6000089588E2089588E0089580E50895282F81
:100D700035EB2303C001112497FF04C0805891096B
:100D8000892F089580589F4FFBCF08950895982F7D
:100D9000907F903BE9F040F49039D1F0903AC1F067
:100DA0009038B1F080E00895903D19F020F4903C27
:100DB000C9F782E00895903E59F0903F99F7815F1E
:100DC0008F3080F7E82FF0E0E35AFE4F80810895DE
:100DD00083E00895A7E0B0E0E0EFF6E00C947D2416
:100DE0008C0108511F4F80919302843009F06CC030
:100DF00080910E018F708093E9008091E80082FF5E
:100E000063C08091E80085FF5FC050E040E064E08F
:100E100070E0CE0101960E947A048091E80085FD81
:100E200005C08091E8008B778093E800FA808F2DD1
:100E30000E94C706282FFD828B818E838C818F8331
:100E400021110AC08981843039F1873029F1863037
:100E500029F121E0853039F630E0E5E0F0E0EC0FF3
:100E6000FD1FE30FF11DF0804FB7F894D8011196E4
:100E7000EC911197F0E0CF01019612966C9170E021
:100E80000E944F24D8015C915817190649F44FBFAE
:100E90003F5F321710F3A7CF23E0DECF22E0DCCF95
:100EA00013968D919C911497E80FF91FF08211967B
:100EB0008C91119790E0019612966C9170E00E94CF
:100EC0004F24F8018183E3CF2796E5E00C94992421
:100ED000A4E0B0E0EEE6F7E00C947B247B01142F55
:100EE000D22E4A832B830C83842F0E94C706811144
:100EF0003AC082E0E816F10489F183E0E816F104D3
:100F000041F081E0E816F10429F5173F29F485E066
:100F100004C087E0073F09F084E089838091930251
:100F20008430C1F4809109018F708093E90050E012
:100F300040E064E070E0CE0101960E94500481110F
:100F400009C08091E80085FD05C08091E8008E779A
:100F50008093E8002496E7E00C94972487EFD8125A
:100F6000DBCF86E0DACF12951F701983D7CF80E0F0
:100F70000895F894E82FE295EF70F0E031A1282F62
:100F80002F7081E090E001C0880F2A95EAF7982F32
:100F90009095932391A392A1892B82A3789408958D
:100FA0009091500292FF10C041E0282F247124300C
:100FB00009F040E031E0282F2871283009F030E0B6
:100FC000431711F02CE0822793FF10C041E0282F37
:100FD0002471243109F040E031E0282F28712831B4
:100FE00009F030E0431711F02CE0822730915102D4
:100FF00030FF10C051E0282F2171213009F050E05E
:1010000041E0282F2871283009F040E0541711F0F2
:1010100029E0822731FF10C041E0282F21712131C2
:1010200009F040E031E0282F2871283109F030E044
:10103000431711F029E0822794FD877E08958238B6
:101040009105B9F1B0F48133910509F47DC048F4FC
:101050008932910509F46DC08A32910509F47BC08B
:1010600008958533910509F45FC08933910509F12D
:101070000895833E9105D9F138F4803E910529F118
:10108000823E910579F10895863E9105D9F1873E1A
:10109000910509F43EC0843E910541F5209151022D
:1010A00021FF24C08091500284FD19C087EE90E09A
:1010B000089520915002237009F05AC020915102E6
:1010C00023FF14C089E290E008952091500220FD92
:1010D00038C03091510230FF09C024FF43C090E076
:1010E00080E008952091500222FDF7CF08952091CD
:1010F000500222FD3AC03091510230FD39C024FF28
:10110000F5CFEDCF2091500223FFF0CF24FDE7CFA4
:10111000CDCF2091500223FD2EC03091510231FFDE
:10112000EECF84EE90E008952091500225FFDECFAF
:10113000C9CF2091500225FD21C02091510223FFEB
:10114000D5CF89E390E0D2CF2091500226FFCECFB9
:101150008AE290E008952091500226FFC7CF81E3F4
:1011600090E0089583EE90E0089582EE90E0089577
:1011700080EE90E0089586EE90E0089585E390E09B
:1011800008951F93CF93DF930E941F08EC01C115B0
:1011900080E5D807F0F5C11580E4D80708F09CC0B9
:1011A000C03ED10520F5CD3CD10508F082C0C83A3B
:1011B000D10578F4C53AD10508F073C0C130D10526
:1011C00019F1209709F1C430D105F0F4D0E0C0E066
:1011D0001BC0C33CD105D0F7C85AD0E0CC0FDD1FEF
:1011E000C85EDE4F0990D881C02DD4640DC0C115F2
:1011F00080E2D80708F0D1C0C11581E0D80708F017
:101200005AC0C83ED10510F7CE01DF91CF911F9192
:101210000895C03682E5D80718F5C03482E5D807AE
:1012200008F06BC0C03282E5D80708F05FC0C11576
:1012300082E5D80708F497C02C2F2695269580E2E2
:10124000289F900111248C2F8370C1E0D0E002C050
:10125000CC0FDD1F8A95E2F7C22BD32BDD68D4CFEC
:10126000C03A82E5D80760F4C03882E5D80708F4B0
:1012700059C0CF71D0E0DC2FCC27C46FD06AC4CF67
:10128000C03C82E5D80708F462C0C03E82E5D807BA
:1012900008F09CCFDC2FCC27CC27DF71C06FD06A41
:1012A000B3CFC55AD0E0CB5EDE4FC881D0E0D0646A
:1012B000ABCFD065A9CF8D2F0E94D007182FCE01BC
:1012C00099270E941F08C12FD0E0DC2FCC27CC2704
:1012D000DF71C82BD92B98CFCE0199270E941F0808
:1012E000CC27DF70C82BD92BD06A8ECFCF71D0E03E
:1012F000DC2FCC27C16FD06A87CF2C2F269526955F
:10130000277080E2289F900111248C2F8370C1E008
:10131000D0E002C0CC0FDD1F8A95E2F7C22BD32BA1
:10132000DC6872CF2C2F26952695277080E2289FA7
:10133000900111248C2F8370C1E0D0E002C0CC0F4B
:10134000DD1F8A95E2F7C22BD32BDA685DCF8C2F95
:101350008F710E94D007C82FD0E0DC2FCC27CC277C
:10136000DF71D06251CF8C2F8F710E94D00755E072
:10137000D695C7955A95E1F7CF70D0E0DC2FCC27F2
:10138000282F30E084FF05C044E0220F331F4A9528
:10139000E1F7C22BD32BD06937CF8D2F8F710E94ED
:1013A000D007182FCE0199270E941F08C12FD0E027
:1013B000DC2FCC27CC27DF71C82BD92BD2CF80953F
:1013C0009091AF0198239093AF0108958091D60238
:1013D00090919D02981301C008958F5F8770FACF96
:1013E000292F993078F5863068F590E036E0239F14
:1013F000800D911D1124682F677023E096958795C5
:101400002A95E1F7FC01EE0FFF1FE80FF91FE857DF
:10141000FE4F50E040E080E0219130E0062E02C017
:10142000369527950A94E2F721703327042E01C0E0
:10143000220F0A94EAF7822B4F5F5F4F433051052A
:1014400059F7089580E00895292F993098F586304E
:1014500088F590E036E0239F800D911D1124282F00
:10146000277041E001C0440F2A95EAF723E09695E2
:1014700087952A95E1F7FC01EE0FFF1FE80FF91F92
:10148000E857FE4F30E020E070E05191DF01119706
:10149000CB01022E02C0969587950A94E2F78170DF
:1014A00081958527842385278C932F5F3F4F233099
:1014B000310559F7089580934F02089590914F0296
:1014C00021E030E0F90101C0EE0F8A95EAF7D90179
:1014D00002C0AA0FBB1F6A95E2F7EA2B01C0220FD8
:1014E0004A95EAF7892F8E23E81305C0292B822F0E
:1014F0000E945B0A089520952923F9CF21E030E06E
:1015000001C0220F8A95EAF7209580914F0282232D
:101510000E945B0A08959091A4018095892380938D
:10152000A401282F277069F4891759F0909151026E
:1015300092FF07C08695869586950E947E0A109236
:10154000A401089521E030E001C0220F8A95EAF756
:1015500080914F02822B0E945B0A089580934E0275
:101560000895662309F45DC08D3C41F40E949706FE
:101570008195809378020E944E0608958E3C19F45E
:101580000E949706F6CF8F3C31F40E949706819512
:1015900080937702F0CF803D19F40E949706F8CF30
:1015A000893D29F40E94750680937902E4CF8A3D33
:1015B00021F40E9475068195F7CF8B3D31F40E948E
:1015C0007506819580937A02D6CF8C3D19F40E94DE
:1015D0007506F8CF9FE2980F983070F4815D990BF3
:1015E00021E030E001C0220F8A95EAF7809176026F
:1015F000822B80937602BFCF8D3D31F480917002B3
:10160000816080937002B7CF8E3D21F4809170028B
:101610008260F7CF8F3D09F0AECF80917002846079
:10162000F0CF409177028D3C59F48091780287FF8A
:101630000DC01092780241110BC010926E0208C0CA
:101640008E3C81F48091780218169CF3442381F03B
:101650008091790290917A02892B09F08CCF1092B7
:101660006F0289CF8F3C49F447FFF0CF1092770289
:10167000809178028111ECCFE0CF803D19F41416EF
:10168000ACF3E4CF90917902893D29F41916F4F670
:1016900010927902DBCF8A3D19F497FFD7CFF8CFAC
:1016A00090917A028B3D29F497FFD0CF10927A0265
:1016B000CDCF8C3D19F41916CCF3C8CF9FE2980F0B
:1016C000983090F4815D990B21E030E0B90102C0BF
:1016D000660F771F8A95E2F7CB018095909176028D
:1016E000892380937602B2CF8D3D31F480917002D0
:1016F0008E7F80937002AACF8E3D21F4809170027C
:101700008D7FF7CF8F3D09F0A1CF809170028B7F45
:10171000F0CF9B01BA01909193029430E1F4809351
:10172000E9009FEF8091E800915085FD06C085EDAE
:101730008A95F1F700009111F5CF8091E80085FFBF
:101740000AC050E040E0C9010E9450048091E800C6
:101750008E778093E800089543E050E0BC0184E078
:101760000E94890B089546E050E0BC0184E00E948D
:10177000890B0895CF93DF93EC0148E050E0BC0162
:1017800081E00E94890B88E0FE01A9E8B2E00190A7
:101790000D928A95E1F7DF91CF910895CF93DF9372
:1017A000C5E4D2E060E0CE010E94C5242196C115B7
:1017B00084E0D807B9F7DF91CF9108951F93CF93B5
:1017C000DF93122F8530E0F46930D0F44630C0F456
:1017D000C42FD0E0CC0FDD1F9CE0699FC00DD11D50
:1017E00011249CE6899FC00DD11D1124632FCE01C9
:1017F00089960E94C524612FCE018A960E94C52435
:10180000DF91CF911F910895AF92BF92CF92DF9257
:10181000EF92FF921F93CF93DF938DE3C82E82E068
:10182000D82ED0E07601C0E014C0F50125913491A6
:10183000412F6C2F8D2F0E94DE0B82E0A80EB11C71
:101840001F5F163091F78CE0E80EF11CCF5FC930B6
:1018500019F0570110E0E9CFDF5F8CE6C80ED11C0C
:10186000D53001F7DF91CF911F91FF90EF90DF907E
:10187000CF90BF90AF900895CF93C82F6FEF811195
:1018800064E285E290E00E94C5246FEFC11168E038
:1018900086E290E00E94C5246FEFC11166E187E205
:1018A00090E00E94C524CF91089580E00E943C0CF6
:1018B00060E088E290E00E94C5240E94040C0E942F
:1018C000CE0B81E00E943C0C08950F931F93CF93A1
:1018D000DF93853030F5693020F5463010F5C42FA0
:1018E000D0E0CC0FDD1F2CE0629FC00DD11D112474
:1018F0003CE6839FC00DD11D1124CE0189960E9424
:10190000A724082F10E0102F0027CE018A960E94EE
:10191000A7249801282BC901DF91CF911F910F9126
:10192000089590E080E0F8CF462F793040F466309B
:1019300030F4853020F4672F0E94650C089590E004
:1019400080E00895CF92DF92FF920F931F93CF9381
:10195000DF936C0100914F0280914E02082BC4E08E
:10196000D0E010E0FC2EC8010C2E02C095958795A2
:101970000A94E2F780FD0CC02197A0F7F12C8F2D7F
:10198000DF91CF911F910F91FF90DF90CF9008953D
:10199000B6018C2F0E94940C0E94C108019761F33C
:1019A000EECFCF93DF93EC010E94A20CBE010E9408
:1019B000940C0E94C108DF91CF910895FC0124810D
:1019C0002223C1F0808191810E94D10C92959F7059
:1019D000963091F058F4925F9F70923058F4803FA7
:1019E00019F030F4883E30F481E008959A5FF4CF26
:1019F000843FD1F380E00895883EB0F3813FD1F772
:101A0000F3CFA6E0B0E0E7E0FDE00C947F2449834B
:101A10005A8349815A819923A1F0222391F0CA0166
:101A20000E94A20C182F682F89819A810E94240A93
:101A300069817A81812F0E94940C2696E3E00C94B0
:101A40009B24CA010E94F009182FF2CF85E290E092
:101A50000E94A724843289F486E290E00E94A724A1
:101A6000883059F487E290E00E94A72491E0863103
:101A700009F090E0892F8170089580E0FCCF90916B
:101A8000510292FB222720F9281779F080FB92F966
:101A900090935102609150027091510284E090E065
:101AA0000E94E32482E00E948B0A08958091AF0196
:101AB0009091AE01892B80937E019091AD01992385
:101AC00091F0892B80937E0120E080E891E0FC0179
:101AD0003191CF0131112F5FF1E086389F07B9F7BF
:101AE00021111092AD0148E050E065EA71E08EE707
:101AF00091E00E94F924892BA9F088E0EEE7F1E05B
:101B0000A5EAB1E001900D928A95E1F7E0917D029E
:101B1000F0917E02309731F00280F381E02D8EE764
:101B200091E009950895CF931092AF01C6E0E0E8E7
:101B3000F1E0DF018C2F1D928A95E9F790E080E0BB
:101B40000E941C0690E080E00E94F7051092AE0112
:101B50000E94560DE5E7F2E0DF011D92CA95E9F714
:101B600010926E0210926F02109270020E944E0646
:101B7000CF910895AAE2B0E0E0ECFDE00C947F2460
:101B800085E992E02091F100DC012D93CD01B2E0D6
:101B90008D399B07B9F780919602833009F472C0A2
:101BA000B8F4813009F449C0823009F4B3C080919F
:101BB000E80083FF96C280919502909196029A3038
:101BC00008F08FC2E92FF0E0E85FFA4D0C9463242F
:101BD0008A3009F48EC08B3009F471C0893039F72E
:101BE00080919502813219F78091990290919A0221
:101BF000009711F00297D9F68091E800877F8093D3
:101C0000E8008091E80082FF38C09091F300809155
:101C1000F200029731F48091F100813011F08630AA
:101C200021F48091F100809388028091E8008B7705
:101C30008093E8000E94A404BACF80919502813A73
:101C400009F0B5CF8091E800877F8093E80080910C
:101C5000990290919A02892B61F468E089E892E0F8
:101C600070E00E9450058091E8008B778093E80037
:101C70009ECF60E090E080E0F3CF809193028111ED
:101C8000C0CF95CF80919502813A09F090CF809195
:101C9000990290919A02892B09F089CF8091E800EE
:101CA000877F8093E8008091E80080FFFCCF8091DF
:101CB00014018093F1008091E8008E77B9CF809174
:101CC0009502813209F073CF8091990290919A0226
:101CD000892B09F06CCF8091E800877F8093E80022
:101CE0000E94A40480919702809314010E94930D96
:101CF0005ECF80919502813209F059CF8091E80042
:101D0000877F8093E8000E94A404809198028093CA
:101D100087024DCF80919502813A09F048CF80919A
:101D2000E800877F8093E8008091E80080FFFCCF87
:101D300080918702BECF803899F0823809F0D1C1F6
:101D4000809199028F70873008F0CBC18093E900B1
:101D50008091EB0085FB882780F91092E90006C08E
:101D60008091910290919202911182609091E8008D
:101D7000977F9093E8008093F1001092F10080919A
:101D8000E8008E77AAC1882309F498C1823009F04F
:101D9000A8C18091970281119BC1809199028F7097
:101DA0002FEF280F263008F09CC18093E900209186
:101DB000EB0020FF8DC1933031F48091EB00806205
:101DC0008093EB0085C19091EB0090619093EB00C4
:101DD00021E030E001C0220F8A95EAF72093EA0063
:101DE0001092EA008091EB008860EACF811179C1FE
:101DF000109197021F778091E3008078812B809368
:101E0000E3008091E800877F8093E8000E94A404AB
:101E10008091E80080FFFCCF8091E3008068809390
:101E2000E30082E0111183E0809393025AC180584D
:101E3000823008F056C120919702309198022C3DD3
:101E4000E3E03E07A1F583E08A838AE289834FB706
:101E5000F894DE01139620E03EE051E2E32FF0E03B
:101E600050935700E49120FF03C0E295EF703F5F6D
:101E7000EF708E2F90E0EA30C0F0C7968D939D935F
:101E80002F5F243159F74FBF8091E800877F8093FF
:101E9000E8006AE270E0CE0101960E945005809150
:101EA000E8008B778093E8001CC1C096E7CF809153
:101EB000990290919A02432F55274330510509F416
:101EC0004AC078F54130510509F47AC08FEB90E0B3
:101ED000E9E5F4E04230510509F003C12091E80042
:101EE000277F2093E80020919B0230919C0282176B
:101EF000930708F49C0140E02115310509F065C005
:101F0000411163C08091E80082FDC9CF80919302A6
:101F1000882329F2853019F28091E80083FFF2CFFF
:101F2000BECF4132510509F43CC04232510509F09F
:101F3000D8C08330910508F0D4C0FC01EE0FFF1F1C
:101F4000E159FE4F0190F081E02D84599E4FDC0154
:101F50008C9190E01AC0332721303105D1F0211542
:101F6000310561F02230310509F0BBC0EAE2F5E04D
:101F7000E4918E2F90E0EAE2F5E007C0E6E6F5E0B6
:101F8000E4918E2F90E0E6E6F5E0009709F4A9C011
:101F9000A5CFE4E5F5E0E4918E2F90E0E4E5F5E0EF
:101FA000F4CF8330910508F09CC0880F991FFC0185
:101FB000EB58FE4F0190F081E02D89E090E08ECF4C
:101FC00082E190E0E8E1F5E089CF809193028823F7
:101FD00009F465CF853009F462CF8091E80083FD74
:101FE0005ECF8091E80082FD8DCF8091E80080FF78
:101FF00083CF9091F3008091F2002115310519F003
:102000008830910550F041E0089709F040E0809158
:10201000E8008E778093E8006FCF44914093F10001
:102020003196215031090196E8CF803809F059C026
:102030008091E800877F8093E800809194028093EC
:10204000F1009DCE81114DC010919702123008F021
:1020500048C08091E800877F8093E8001093940245
:102060000E94A404112311F084E005C08091E300D4
:1020700087FDFACF81E08093930242E061EC81E03A
:102080000E94C30442E261EC84E00E94C30442E285
:1020900061EC82E00E94C30442E260EC83E00E94B3
:1020A000C30442E361E885E00E94C30442E360E8C0
:1020B00086E00E94C3048091930213C0809197022E
:1020C000813079F481E0933009F080E080939202CE
:1020D0001092E9008091E800877F8093E8000E94D9
:1020E000A4048091E80083FF0AC08091E800877F04
:1020F0008093E8008091EB0080628093EB00AA96C9
:10210000E3E00C949B240E94930D2FEF84E39CE06A
:10211000215080409040E1F700C0000088E19AE043
:102120000FB6F894A895809360000FBE909360005E
:10213000FFCF882321F00E94DF090E94560D0895E9
:10214000882339F09091AF01982B9093AF010E94B2
:10215000560D08958823D1F19CEF980F913A78F4A9
:10216000E0E8F1E09191891303C0DF0111971C921F
:1021700091E0E638F907B1F70E94560D089590E214
:10218000980F983050F4877091E001C0990F8A95AC
:10219000EAF7892F0E94DF09EFCF9BE5980F933074
:1021A00028F490E080E00E941C06089598E5980FBE
:1021B0009B3128F490E080E00E94F705089593E3B6
:1021C000980F933118F460E00E94B10A0895CF93FC
:1021D000C82F8823B1F08CEF8C0F813A00F5E0E82E
:1021E000F1E086E891E0DF012D91C21761F08A17D6
:1021F0009B07D1F76C2F8EE791E00E94DD050E94CE
:10220000560DCF9108952191C21303C0DF0111979C
:102210001C928E179F07B9F70E94560DEBCF80E2F4
:102220008C0F883068F4C77021E030E001C0220FC5
:10223000CA95EAF78091AF01822B8093AF01DFCF7F
:10224000EBE5EC0FE33040F4F0E0EB5EFE4F808115
:1022500090E00E941C06D5CFE8E5EC0FEB3150F47E
:10226000F0E0EE0FFF1FE85EFE4F808191810E943B
:10227000F705C7CF83E38C0F833118F661E08C2F0D
:102280000E94B10ABECF1F93CF93DF93182FD0E0E7
:10229000C0E0893311F4C0E5D0E0812F0E94E7103F
:1022A000209739F4812F0E94AA10DF91CF911F91BE
:1022B00008958FE99FE00197F1F700C00000219792
:1022C000EFCF0F931F93CF93DF93C62FD42F022FFF
:1022D000FC0185818823A9F06093C6030E94D10583
:1022E0009093C5038093C403C77081E001C0880F39
:1022F000CA95EAF70E94A010DF91CF911F910F912C
:1023000008958091C603681332C08091C4039091F0
:10231000C5030E94C205883C910548F510E21D0FD7
:10232000CD17B9F080E28C0F883040F4C77081E09F
:1023300001C0880FCA95EAF70E949910183048F436
:1023400081E09D2F977001C0880F9A95EAF70E944F
:10235000A010802F0E944311183070F6D77081E0D2
:1023600001C0880FDA95EAF70E949910C5CFC770AF
:1023700081E001C0880FCA95EAF7F6CFA8E0B0E087
:10238000E4ECF1E10C9472247C01DC0114968C9154
:102390001497882309F4B4C021E04C9111965C9104
:1023A000119712966C91129713967C91139715962C
:1023B0009C910E94010D8C01F7019581992309F4EC
:1023C000F9C6980137572038310508F02CC1003183
:1023D00008F087C08FEF93E00E94A724811181C08D
:1023E00055E4A52E52E0B52E011148C0FE013396EA
:1023F00086E0DF011D928A95E9F74AE0442E8501C7
:102400000F5F1F4FC5010E94A72489831A8288236A
:1024100009F467C0813009F077C06501B2E0CB0EE6
:10242000D11CC8010E94A7248A83882309F459C0BB
:102430009FEF980F933080F5E3E0AE0EB11CC6011C
:102440000E94A7248B83882309F44BC01C828E0131
:102450000F5F1F4FD8012C91222389F2213009F000
:102460008DC011969C91119712968C91913009F024
:102470004DC00E5F1F4F0E9443114EC0A114F4E0E7
:10248000BF0679F1C5010E94A724811101C0015046
:102490002FEFA21AB20AA8CF56018430C1F602E08B
:1024A00010E05601FFEFAF1ABF0AC6010E94A72431
:1024B000E1E0F0E0EC0FFD1FE00FF11F80838823C7
:1024C00081F08C3741F4E2E0F0E0EC0FFD1FE00F0B
:1024D000F11F1082BCCF0F5F1F4F65010730110540
:1024E00001F78091A401877059F0F7018581882355
:1024F00039F08091510282FF03C082E00E948B0A72
:102500002896E0E10C948E245801A1CF923039F442
:102510000E5F1F4F0E94E7100F5F1F4F9BCF93303E
:1025200029F40E5F1F4F0E94AA10F6CF943019F0C5
:102530000F5F1F4FF1CF0E5F1F4F30E020E0B8015B
:102540006F5F7F4FF80141818053990B8A3091056D
:1025500050F02150310900F38FE99FE00197F1F726
:1025600000C00000F6CF429EF001439EF00D112402
:102570009C012E0F3F1F842F8B01E1CFE22FF0E053
:10258000E354FE4F5490822F86958695869590E071
:10259000FC01E355FE4F64902770712C022E02C09F
:1025A000759467940A94E2F7A1E06A227724FC010B
:1025B000E356FE4F8490912C022E02C0959487948E
:1025C0000A94E2F7B1E08B229924FC01E357FE4F15
:1025D000C490D12C02C0D594C7942A95E2F7E1E0CB
:1025E000CE22DD246114710419F081EE0E94E710FF
:1025F0008114910419F086EE0E94E710852D0E9447
:1026000043118114910419F086EE0E94AA106114FE
:10261000710419F081EE0E94AA10C114D10409F4CA
:102620007BCF8CE228CF0338F1E71F0708F0BCC04E
:10263000033721E7120708F09FC1043631E713077B
:1026400008F067C0073561E7160708F05CC105357B
:1026500071E7170708F048C00B3481E7180708F046
:102660002FC10330A1E71A0708F448C080915F0228
:10267000282F221F2227221F409160024770440FFB
:10268000422B8F772DEF200F30E0B9016B547E4F36
:102690006B01992309F4FBC010915E02912F9F708A
:1026A000159515951595159513507CE0979F100D70
:1026B0001124100F212F2F774069E091D702F0915C
:1026C000D802082F63E070E087ED92E00995F601EB
:1026D000E85BFF4F80818F5F8083D6018C918F3FB5
:1026E00009F0FFCE1C93FDCE0535B1E71B0709F4B9
:1026F000F1C00635E1E71E0709F4F9C0F801E85119
:10270000FC47E730F10508F00BC2EE5EFA4D0C9481
:1027100063240137F1E71F0780F5063621E712072A
:1027200008F008C1043631E7130709F4F4C0053690
:1027300061E7160719F7992309F4D3CE80915E0259
:10274000982F959595959595959596300CF0C9CEC1
:1027500021E0290F2295207F259525952595259502
:10276000322F3295307F8F70832B80935E02191643
:102770000CF0B7CE27FFB5CED9C00137100709F44A
:10278000E6C0023781E7180709F0B8CF80915F02F1
:10279000982F9F779F3709F4A4CE933708F0EAC0AB
:1027A000935F9F778078E4C00938A1E71A0709F49E
:1027B00045C1B8F50538E1E71E0709F407C1D8F4AB
:1027C000033821E7120709F4E7C0043831E713079B
:1027D00009F094CF992309F484CE20915F02322F1F
:1027E000331F3327331F90916002892F8770880F22
:1027F000832B8F5FDEC0073861E7160709F410C12D
:1028000008F4F3C04FE7911101C040E090915F02DE
:10281000991F9927991F809160028770880F62E441
:10282000E0C00C3881E7180709F418C188F40A38A9
:10283000B1E71B0709F410C10B38E1E71E0709F0E7
:102840005DCF81E0911101C08FEF80935D0249CE91
:102850000E38F1E71F0709F433C108F41CC10F3823
:1028600031E7130709F04ACF80915F02282F221F1A
:102870002227221F809160028770880F822B6FEFC2
:102880007FE1992309F42BC10E94D4022ACEFB01D7
:102890002081E85BFF4F908191509083911121CE70
:1028A0002F774068E091D702F091D802082F63E0BB
:1028B00070E087ED92E009958FEFD6018C9311CEF1
:1028C0000B54E02FEF7000915E02007F0E2B0093FF
:1028D0005E0207CE80915E02982F9F7009F401CEB0
:1028E000915F9F70807F892B80935E02FACD992340
:1028F00009F4F7CD80915E02982F9F70993008F00F
:10290000F0CD9F5FEECF0D55E02FE295E07F009177
:102910005E020F70DBCF80915E02982F95959595A2
:10292000959595959B3F0CF4DCCD915F9295907FAA
:102930008F70D9CF0656ECE00E9FE02D1124EF7773
:1029400000915F0200780E2B00935F02CACD809148
:102950005F02982F9F7709F4C4CD80789F3721F4C8
:10296000856780935F02BDCD9D30D8F39D509F77E2
:10297000892BF7CF8F67F5CF035780915F0200FB5C
:1029800087F980935F020695077080916002887FC7
:10299000082B00936002A5CD20915F02322F331FD8
:1029A0003327331F90916002892F8770880F832B04
:1029B000815F382F3F7080FB27F920935F02832FC0
:1029C0008695987F982B909360028BCD90915F02B3
:1029D000991F9927991F809160028770880F40E0A6
:1029E0006BE7892B0E94ED027CCD4FE7911101C06E
:1029F00040E090915F02991F9927991F8091600292
:102A00008770880F60E4EDCF40E090915F02991FDE
:102A10009927991F809160028770880F61E4E1CF48
:102A20004FE7F3CF40E090915F02991F9927991FDC
:102A3000809160028770880F63E4D3CF4FE7F3CFB4
:102A400040E090915F02991F9927991F8091600241
:102A50008770880F64E4C5CF4FE7F3CF9091600291
:102A6000292F2695269526952F7081E0820F8F704D
:102A7000880F880F880F9778892B80936002982F92
:102A8000987709F02ECD220F220F220F8778822B04
:102A90008093600226CD992309F423CD80916002B2
:102AA000982F987709F41DCD982F96959695969521
:102AB000915F9F70990F990F990F8778892BE8CFB5
:102AC00080915F02282F221F2227221F80916002FF
:102AD0008770880F822B60E070EE9111D5CE70E088
:102AE00060E0D2CE26E241EE61EEC7010E946111A4
:102AF000F8CC27E245EE65EEF8CF26E241EE60EE37
:102B0000F4CF27E245EE64EEF0CF26E241EE62EE2E
:102B1000ECCF27E245EE66EEE8CF28E241E0EBCFCE
:102B2000992309F42FC31092C603C80190578397C5
:102B300008F011C384E090E00E94AF24909351020A
:102B400080935002F801E150F047E232F10520F4A1
:102B5000E75EFA4D0C94632480915002816080936B
:102B6000500295C0809151028860809351028FC0BD
:102B7000809150028260F3CF809150028460EFCF49
:102B8000809150028860EBCF809151028160EDCF3F
:102B9000809151028260E9CF809150028061DFCF45
:102BA000809150028062DBCF809150028064D7CF49
:102BB0000E94930D809150028068D1CF8091500285
:102BC0008C60CDCF809151028360CFCF8091500235
:102BD0008E7FC5CF80915102877FC7CF80915002F1
:102BE0008D7FBDCF809150028B7FB9CF80915002F5
:102BF000877FB5CF809151028E7FB7CF80915102F0
:102C00008D7FB3CF809150028F7EA9CF80915002EB
:102C10008F7DA5CF809150028F7BA1CF0E94930D15
:102C2000809150028F779BCF80915002837F97CF06
:102C3000809151028C7F99CF8091500282FB99271D
:102C400090F921E0922790FB82F990FB83F987CFDE
:102C500080915102982F909591708E7F892B90FBD7
:102C600081F983CF90915002892F8F7B96FF8064EA
:102C700076CF0E94930D90915002892F97FB87F990
:102C800080586DCF61E08EE090E00E94C524609195
:102C900050027091510284E090E00E94E3240E946F
:102CA000930D1FCC60E0EFCF90915002892F8F7E63
:102CB00094FF806154CF90915002892F8E7F90FFB6
:102CC00081604DCF90915102892F877F93FF88605B
:102CD0004CCF85E361C281E00E94A20A03C081E07B
:102CE0000E947E0A43E062E081E00E945E0AF9CB26
:102CF00082E0F2CF0B353CE7130749F10C356CE766
:102D00001607D9F00A351C4709F0ECC281E01CC057
:102D10000E94930D8FEF94E3ACE081509040A0406F
:102D2000E1F700C000000E94B1056FEF7FEF90E077
:102D300080E00E94E3240E9483108091510282FB74
:102D4000882780F991E089270E943F0DCBC280E05F
:102D5000FBCFC8010E94F009D82ED5C2212F2F70B9
:102D6000D22E107F19F0D29490EFD922AA20B9F078
:102D7000DD2069F080E2800F883010F0811009C0FA
:102D80008091AF01D82AD092AF010E94560D802FBA
:102D900043C08091AE01D82AD092AE01F6CF802FE9
:102DA0000E94AA10DD20D1F1005E083010F08110E1
:102DB00004C08D2D0E94DF0906C0D0948091AE0121
:102DC000D822D092AE010E94560D28C0312F3F70FC
:102DD000D32E107F103219F0D29480EFD8228820A1
:102DE00059F061E0861609F481C0AA2009F48DC06B
:102DF000992009F44FC0CBCF8091510282FD46C08B
:102E0000AA20F1F1DD2039F08091AF01D82AD092CB
:102E1000AF010E94560D80E00E94E710AB2DA85034
:102E2000BB0B149710F40E944106CC20A9F08091AE
:102E3000A40180FD11C0F7011582869586958695BF
:102E40000E94A20AC7010E94BE118091A40186952A
:102E5000869586950E947E0A20E0D7014C911196B6
:102E60005C91119712966C91129713967C9113971F
:102E700014968C91149715969C910E94010D40CB4D
:102E800080E00E94AA10DD2049F293CFAA20A1F091
:102E9000911004C08D2D0E94A010C0CF71E0971238
:102EA000BDCF8091AD019D2D9823D91609F4B6CFE1
:102EB000D82AD092AD01B2CF9110B0CF8D2D0E9403
:102EC00099109091AD018D2D892329F08D2D80953C
:102ED00089238093AD01809187019D2D982309F46A
:102EE0009DCFD094D822D092870198CFAA2029F0E4
:102EF00085E0891508F492CFCDCF94E0991508F4B8
:102F00008DCF8D2D0E94991089CF9920D1F3A9E3FF
:102F10008A1209C0BFEFE7EEF3E0B150E040F040A5
:102F2000E1F700C00000802F0E94AA1077CF812F08
:102F300086958695837061F0813009F06FCFC80166
:102F40009370A11002C080E090E00E94F70566CF68
:102F5000C8019370A11002C080E090E00E941C069E
:102F60005DCF6A2D802F0E94B10A58CF812F8370C8
:102F700089F5A11053CF402F429546954770440FD5
:102F8000440F802F8F70042E01C0880F0A94EAF737
:102F9000202F207104FF07C02FE030E001C0220F76
:102FA0004A95EAF72095169516951370123069F038
:102FB00050F430914E02113029F0822B83230E946D
:102FC000AE0A2CCF832B822BFACF282B80914E0276
:102FD0008227F5CF8695AA2011F0812F8170882352
:102FE00009F41CCF402F429546954770440F440F7B
:102FF000802F8F70042E01C0880F0A94EAF7202FCB
:10300000207104FF07C02FE030E001C0220F4A9575
:10301000EAF72095169516951370123069F050F462
:1030200030914F02113029F0822B83230E945B0ADA
:10303000F5CE832B822BFACF282B80914F0282274B
:10304000F5CF1F70AA2029F0812F0E94A20A802F9D
:1030500022CF802F0E949910812F0E947E0ADECEFF
:10306000802F22EF8216B1F1281570F030EF831611
:10307000D1F061EF861691F0AA2009F45CC091109E
:1030800086CE812F8F712AC073EF871651F194EF8E
:103090008912F2CF8091510282FD2FC0812F8F7152
:1030A000AA20D9F21BC0AA2081F0A4E0A91508F437
:1030B000B5CE1F7181E090E0012E01C0880F0A9407
:1030C000EAF790914F028927B1CFB5E0B91508F41E
:1030D000A5CEEFCF812F8F71A110BFCF0E94A20A82
:1030E0009DCE80E0AA2009F4A1CF1F7181E0012EBE
:1030F00001C0880F0A94EAF799CFAA2089F01F71BE
:10310000812F0E94A20A8091510282FF07C0E8E04D
:103110001E9FC001112483608093A401812FDECF04
:1031200081E00E948B0AF1E0F91508F077CE82E089
:103130000E948B0A73CE992059F0893309F0F3CE9F
:103140002FEF37EE63E0215030406040E1F7E9CEE9
:10315000812F8F7182CF0631BCE71B0709F0A8C011
:103160008091AF018A7A91E009F490E09093860112
:1031700069E2811165E38EE791E00E94DD050E941E
:10318000560DAFC90631ECE71E0709F0FBC0809170
:10319000860181119ECD89E2E0E8F1E026E831E088
:1031A0009191891303C0DF0111971C922E173F07DD
:1031B000B9F7E5CF0338F1E71F0708F041C003373F
:1031C00021E7120708F08DC9043631E71307D0F460
:1031D000073561E7160708F084C9053571E7170759
:1031E00030F40B3481E7180708F43BCA7AC9053577
:1031F000B1E71B0709F475C90635E1E71E0709F4B5
:1032000070C97CCA0137F1E71F0780F4063621E751
:10321000120708F066C9043631E7130709F461C9DB
:10322000053661E7160709F45CC968CA013710075B
:1032300009F457C9023781E7180709F452C95ECA71
:103240000938A1E71A0709F4EDCBC8F40538E1E71E
:103250001E0709F446C958F4033821E7120709F498
:1032600040C9043831E7130709F43BC947CA073896
:1032700061E7160709F4C8CB08F4BACBC6CA0C3804
:1032800081E7180709F42DC958F40A38B1E71B077C
:1032900009F4D6CB0B38E1E71E0709F4D5CA2ECACC
:1032A0000E38F1E71F0709F40BCC08F0D8CA19C98A
:1032B00007376CE7160709F40ECD08377CE71707C8
:1032C00009F416CD0330BCE71B0709F42ECD08F036
:1032D00011CD0115FCE71F0709F41ACD01301C4779
:1032E00009F429CDD70115968C9115970D911C9154
:1032F000882309F42ECDC8010E94A20CD82E682F75
:10330000C8010E94240AB8018D2D0E94940C0E94CD
:10331000C1088C01882EF701A580968092943FE029
:1033200093228091A4018770F1F0CA2CAA20E1F0C9
:10333000812F807F803451F080E2800F883098F0B8
:10334000911004C0812F807E803269F080915102FB
:1033500082FF09C082E00E948B0A8091A4018770DD
:10336000CC24C3948111C12CB12EB2942FE0B2228F
:10337000FBE0FB1508F452CDEB2DF0E0E55CFA4DD7
:103380000C94632407378CE7180709F4A8CC82E073
:1033900008379CE7190709F4A3CCA4CFCF93DF9398
:1033A0008091A301807F09F04DC08091A201882304
:1033B00009F448C0E091D60250919D02C0919E014F
:1033C000D0919D0160919F017091A00147E05E172F
:1033D000C9F18E2F90E0E49FF0011124E256FD4FD9
:1033E0002481222391F1489FF001499FF00D11247F
:1033F000DF01A256BD4F11962C9111972C1325C0B9
:103400002C912D1322C015962C91159721111DC0BA
:1034100012962D913C91261B370B283C3105A8F4C0
:103420008091A3018F7080618093A301EC55FD4FC3
:1034300080818F70806180838DE991E00E94BE1150
:103440000E94E609DF91CF910895FC013196E77063
:10345000BECFA4E1B0E0EFE2FAE10C9476248C0157
:1034600086E0F801DE011F9601900D928A95E1F742
:10347000F8018481E5809DE9A92E91E0B92E909113
:10348000A101911128C0882319F1EE20F1F0C801A3
:103490000E94DE0CF82E8823C1F087E0F801D501E8
:1034A00001900D928A95E1F78091A101813031F46C
:1034B00080919D0190919E010E94D10C0E94CE1995
:1034C0008F2D6496ECE00C949224C8010E94BE11EA
:1034D000FF24F394F5CFD080C18082809380F09058
:1034E000A20120919F013091A001A401421B530B26
:1034F000FF2009F4D9C0483C510508F092C0882348
:10350000F9F290919E018091A301282F207F09F06C
:1035100056C0C91214C090919D01D91210C0E1107B
:1035200048C08F7080618093A3018DE991E00E9473
:10353000BE118091A301F8018683F12CC1CFE11067
:1035400038C06C2D8D2D0E94FE026C2D8D2D0E9499
:10355000FE02E82E8111F1CFDF86C88A8F85988917
:103560000E94D10C292F22952F70243058F49F707F
:10357000223088F0992399F0F8019681907F79F4B0
:10358000FE2C9ECF2A5F2F70223068F0C8010E9467
:10359000BE11EF2CF5CF992311F0882389F3805EBB
:1035A000883070F3F3CF803F58F3815F833070F73A
:1035B000E7CF8091A30181608093A301BECFC912A0
:1035C00007C090919D01D91203C0EE2009F48DC06F
:1035D000C8010E94DE0C882309F477CFEE2009F49D
:1035E00074CF8091A301803288F020919D013091A9
:1035F0009E01398728879B868A869091A1019C87A6
:103600001D868E87CE0108960E94BE1187E0F801C4
:10361000ADE9B1E001900D928A95E1F70E94CE19D3
:1036200057CF9091A301292F207F51F48DE991E08C
:103630000E94BE1187E0F50111928A95E9F77DCFCE
:10364000882309F43DCF80919E018C1110C0809198
:103650009D01D8120CC0E1100AC09683C8010E94D7
:10366000BE1187E0F50111928A95E9F729CFC801CB
:103670000E94DE0C882309F428CFEE2009F425CF20
:103680008091A301803210F220919D0130919E0122
:103690003A8329839C828B829091A1019D831E8213
:1036A0008F83CE010196B0CF483C5105D0F68823D8
:1036B00009F40ECFFE2CEE2009F407CF80919E0175
:1036C0008C1120C080919D01D8121CC08091A30153
:1036D00080FD0FC0982F907F61F08683903F31F07E
:1036E000982F907F905F8F70892B8683C8010E94EE
:1036F000BE1187E0F801ADE9B1E001900D928A9525
:10370000E1F7DECEC8010E94DE0C81117FCF8091EF
:10371000A30181608093A301C8010E94BE11D0CE95
:10372000ABE1B0E0E6E9FBE10C947E244E8B5F8BCD
:10373000688F798F8A8F9B8F192F91111092AE010C
:103740001D8A86E0FE017696DE011F9601900D929D
:103750008A95E1F70A8D002341F021E04F855889D1
:1037600069897A89C8010E94010D0B8B1C8B87E047
:10377000FE013F96DE01189601900D928A95E1F7C1
:10378000CE0108960E94291A81110CC087E0FE0123
:103790003896DE01119601900D928A95E1F78C859D
:1037A00081110BC017E08091D60290919D02891380
:1037B00031C06B96E4E00C949A2420919D0230E095
:1037C000C9010196877099274091D60248171906BA
:1037D00099F097E0929FD001939FB00D1124A256CB
:1037E000BD4FFE01319601900D929A95E1F78093BD
:1037F0009D020E94E609D6CF0E94930D10929D0271
:103800001092D60287E0EDE9F1E0DF011D928A9582
:10381000E9F7C8CF819FC001112482569D4F0E94B5
:10382000291A882331F28091D60290E001968770A0
:1038300099278093D602B7CFA6E0B0E0E2E2FCE1A0
:103840000C947E240E94D1058C018091B00190914E
:10385000B1018017910781F019821A820E94D10567
:10386000682F49815A81792F80E090E00E94901B57
:103870001093B1010093B0012696E4E00C949A24D1
:10388000A9E0B0E0E6E4FCE10C9477248E010F5F40
:103890001F4F89E0F80111928A95E9F78EE4C82E4E
:1038A00081E0D82EF12CE12CAA24A394B12CF601AE
:1038B00081916F018F3F09F443C0F894E82FE2959E
:1038C000EF70F0E021A18F70A50102C0440F551FD9
:1038D0008A95E2F7CA01922F982B91A392A1809525
:1038E000892382A3789400C0E7E5F1E0912C31E0D0
:1038F00021912F3F09F465C0A22FA295AF70B0E0CF
:1039000090968C9190E02F7002C0959587952A959E
:10391000E2F780FD56C0832F982A330F51E0ED3532
:10392000F50731F7F601319780818F3F11F00E9442
:10393000B90780EA8A95F1F7F801EE0DFF1D908234
:10394000EFEFEE1AFE0AF9E0EF16F10409F0AFCF3F
:1039500049E050E0B80185E492E00E94F924892B07
:1039600091F189E0F801A5E4B2E001900D928A9509
:10397000E1F781E08093B4010E94D1059093B301F7
:103980008093B2018091B2019091B3010E94C2056F
:103990000597E8F049E050E065E472E085E692E0E2
:1039A0000E94F924892BC1F089E0E5E4F2E0A5E664
:1039B000B2E001900D928A95E1F781E01092B40196
:1039C00007C080E0A9CF8091B4018111DBCF80E0F6
:1039D0002996EBE00C94932480E0F0CF1F920F9295
:1039E0000FB60F9211242F933F934F935F936F93D2
:1039F0007F938F939F93AF93BF93CF93DF93EF9377
:103A0000FF93D091E900DF708091EC00C82FC17066
:103A100080FDC0E81092E9008091F000877F8093DC
:103A2000F00078940E94BA0D1092E9008091F000A5
:103A300088608093F000CD2BCF70C093E900FF9198
:103A4000EF91DF91CF91BF91AF919F918F917F9136
:103A50006F915F914F913F912F910F900FBE0F90FB
:103A60001F9018951F920F920FB60F9211242F934B
:103A70003F934F935F936F937F938F939F93AF93F6
:103A8000BF93EF93FF938091E10082FF09C0809183
:103A9000E20082FF05C08091E1008B7F8093E1000E
:103AA0008091DA0080FF24C08091D80080FF20C080
:103AB0008091DA008E7F8093DA008091D90080FFB8
:103AC0009DC080E189BD82E189BD09B400FEFDCFC2
:103AD00081E08093930280918602811109C00E9447
:103AE00000040E94F5048091E20084608093E2006B
:103AF0008091E10080FF17C08091E20080FF13C039
:103B00008091E2008E7F8093E2008091E2008061EC
:103B10008093E2008091D80080628093D80019BC25
:103B200085E0809393028091E10084FF2BC0809117
:103B3000E20084FF27C080E189BD82E189BD89B5AB
:103B4000982F917080FFFBCF8091D8008F7D80935C
:103B5000D8008091E1008F7E8093E1008091E200A7
:103B60008F7E8093E2008091E20081608093E2008A
:103B700080919402882309F447C084E080939302E3
:103B8000809193028091E10083FF27C08091E20041
:103B900083FF23C08091E100877F8093E10082E072
:103BA00080939302109294028091E1008E7F809323
:103BB000E1008091E2008E7F8093E2008091E2003C
:103BC00080618093E20042E060E080E00E94C304F4
:103BD0008091F00088608093F000FF91EF91BF9199
:103BE000AF919F918F917F916F915F914F913F9195
:103BF0002F910F900FBE0F901F90189519BC109227
:103C000093021092860274CF8091E30087FD93E0C7
:103C100090939302B5CF78941F921FB61F921124F0
:103C20008F939F93AF93BF93809182029091830271
:103C3000A0918402B09185020196A11DB11D8093CF
:103C4000820290938302A0938402B0938502BF9175
:103C5000AF919F918F911F901FBE1F9018951F923B
:103C60001FB61F9211248F939F93AF93BF938091A0
:103C70008102811113C08091820290918302A091F0
:103C80008402B09185024196A11DB11D80938202EC
:103C900090938302A0938402B0938502BF91AF9169
:103CA0009F918F911F901FBE1F901895CDB7DEB7C3
:103CB000A6970FB6F894DEBF0FBECDBF85B780685C
:103CC00085BF85B7806885BF84E080935E028FE7FB
:103CD00080935F02809160028078806480936002AC
:103CE000E5EBF1E08FEF8193DF01A95BBF4F1C9201
:103CF00021E0ED3FF207B9F710925C0210925D02ED
:103D000010926302109262021092FC021092FE0264
:103D10001092FD0280EC8093C1038FEF92E09093AC
:103D2000C3038093C2031092C0031092BF0310928A
:103D3000DC021092DB021092DE021092DD02109281
:103D4000E0021092DF021092E2021092E102109261
:103D5000E4021092E3021092E6021092E502109241
:103D6000E8021092E7021092EA021092E902109221
:103D7000EC021092EB021092EE021092ED02109201
:103D8000F0021092EF021092F2021092F1021092E1
:103D9000F6021092F50288E697E09093D80280939D
:103DA000D7028AEE96E09093F8028093F70286ECB1
:103DB00096E09093F4028093F30285EC96E0909362
:103DC000DA028093D90284B7877F84BF0FB6F89454
:103DD000A8958091600088618093600010926000D7
:103DE0000FBE80E890E00FB6F89480936100909346
:103DF00061000FBE87EB97E090937D0180937C017B
:103E00000E9400040E94F5048091E2008460809387
:103E1000E2007894809193028823A1F01091E90048
:103E20001F709091EC00892F817090FD80E8182B15
:103E30001092E9008091E80083FD0E94BA0D1F7086
:103E40001093E90082E084BD93E095BD9AEF97BDA1
:103E500080936E000E94260D811102C00E94550CB5
:103E60000EE411E0E7E5EE2EE1E0FE2ED8018D91A3
:103E70008D018F3F11F00E94B907E016F106B1F7EE
:103E800007E511E0F80181918F018F3F11F00E9449
:103E9000B907F1E00D351F07A9F789E0E5E6F2E083
:103EA000DF01282F1D922A95E9F7E5E4F2E0DF0112
:103EB0001D928A95E9F790E080E00E94AF24863E4B
:103EC0009E4F21F40E94260D811167C066EE7EEFA1
:103ED00090E080E00E94E32460E082E090E00E94B5
:103EE000C52460E083E090E00E94C52410924E0259
:103EF00060E074E184E090E00E94E32460E086E00A
:103F000090E00E94C5246FEF87E090E00E94C524F6
:103F100040E050E0BA0188E090E00E94D72460E0E1
:103F200084E290E00E94C52460E087E190E00E9476
:103F3000C52460E08CE090E00E94C52460E08DE044
:103F400090E00E94C52419821A821B821C821D8265
:103F50001E821F82188648E050E068E170E0CE01C2
:103F600001960E94B52440E050E0BA0180E290E062
:103F70000E94D72480E00E943C0C0E94550C40E037
:103F800050E0BA018FE090E00E94D72440E050E07A
:103F9000BA0183E190E00E94D72482E090E00E9481
:103FA000A7248093520284E090E00E94AF24909373
:103FB0005102809350020E94401CEFEFF6E721E08F
:103FC000E150F0402040E1F700C000000E94401C9A
:103FD0008091650280FF08C06FEF7FEF90E080E086
:103FE0000E94E3240E94B10583E090E00E94A72490
:103FF0000E94AE0A80E091E090937E0280937D0261
:1040000068E1A62EB12C05E612E0075F73E0C72E2B
:10401000D12C8091930240E4E42E50E1F52E12E180
:10402000853009F484C00E94401C23E5E22E22E082
:10403000F22E35E6832E32E0932ED401F7019191D2
:104040008D9142E0EC35F40709F47BC09817B9F381
:1040500010E033243394D4017D904D01F701419059
:104060007F01471419F14724612C55245394842D62
:104070008521A1F069A21AA30E94D1059CA38BA35C
:104080003DA291E0872D852109F490E09EA349A1EE
:104090005AA16BA17CA18DA10E94901B6394550C29
:1040A000F6E06F12E4CFF701319770821F5F19308D
:1040B00091F68FB7F89440918202509183026091FB
:1040C0008402709185028FBF40C08091930284303A
:1040D00009F1109281020FB6F894A895A0926000A1
:1040E0000FBEE092600083B7817F846083BF83B797
:1040F000816083BF7894889583B78E7F83BF0FB626
:10410000F894A89580916000886180936000109277
:1041100060000FBE80919202882349F00E94401CEB
:10412000E5E6F2E08191811178C30E13FBCF809117
:104130009302853009F4C9CF0E94930D0E94410675
:1041400072CF981385CF0E941C1C86E0E5E7F2E051
:10415000DE01119601900D928A95E1F7809076022A
:10416000F0907702E09078029090790210917A02B4
:1041700010927702109278021092790210927A02CD
:104180008F2D8E2909F445C080917302909174029D
:104190000E94C2059C0190916E02992309F466C3A6
:1041A00025313105B0F19F3F19F09F5F90936E026A
:1041B000FF2059F00E9497069FEF1F140CF491E026
:1041C000899F802D112480937702EE2059F00E9460
:1041D000970691E01E140CF09FEF899F802D11240B
:1041E0008093780280917702882399F0709078020A
:1041F000772079F00E94B706882309F436C18093AE
:104200007702872D0E94B706882309F430C1809376
:104210007802892D812B09F445C08091710290911B
:1042200072020E94C2059C0190916F02992309F4C9
:1042300018C321353105B0F19F3F19F09F5F90936E
:104240006F02992059F00E9475069FEF19140CF423
:1042500091E0899F802D112480937902112359F0D8
:104260000E94750691E011160CF09FEF899F802D3A
:10427000112480937A0280917902882399F090909A
:104280007A02992079F00E94B706882309F4F1C0D8
:1042900080937902892D0E94B706882309F4EBC028
:1042A00080937A0280917602881217C080917702FB
:1042B000882311F08F1111C020917802222311F070
:1042C0002E110BC090917A02992311F0191305C099
:1042D00030917902332309F4B6C20E944E0686E07B
:1042E000FE013196A5E7B2E001900D928A95E1F7C3
:1042F000E091F702F091F802309719F087ED92E023
:1043000009959FB7F894E090C0038091BF03E81629
:1043100008F4B3C0E81A9FBF912C812CF12C6624BD
:104320006394712C94E0492E332433948E149F04AB
:1043300008F4A7C080916202909163020E94C205B6
:10434000209160022695269526952F70281719062C
:1043500009F060F50E94D105909363028093620298
:1043600080915D02882311F190915F02991F992736
:10437000991F809160028770880F40915C0261E014
:10438000892B0E94ED0280915D0290915C0287FF73
:104390002AC1482F552741950CF4509594171506BE
:1043A0000CF021C110925C0210925D020E94410645
:1043B00090916402891769F0809364028FB7F89432
:1043C0004091820250918302609184027091850233
:1043D0008FBF809193028430E1F4809109018F7046
:1043E0008093E9009091E80090FF13C090919302B0
:1043F000943079F48093E9009091F3008091F20079
:10440000892B39F08091E8008E778093E8000E9434
:104410001F0480919302843009F0FBCD83E08093E8
:10442000E9008091E80082FFF4CD8091E80090E0FF
:1044300085FF09C050E040E060E270E0CE010196E7
:104440000E947A0491E08091E8008B778093E800E5
:10445000992309F4DECDE981E150E33108F0D6C0BB
:10446000F0E0E95BFA4D0C94632481E0C8CE81E072
:10447000CECE81E00DCF81E013CF2091C103E20EBB
:1044800049CF8091BF0390E06091C10370E00E942A
:104490004F242091C2033091C303280F391FD90143
:1044A0001C915090FC02183FE8F03092FC0220E092
:1044B00040E0612F81E090E00E941D035092FC02D9
:1044C0002FB7F8948091BF0390E001966091C103EB
:1044D00070E00E944F248093BF032FBFFFEF8F1A1D
:1044E0009F0A24CF17FF50C0B4E05B1631F0109341
:1044F000F9027092FE026092FD02812F0E94C706AF
:10450000813069F08823D1F08230A9F0833099F0AE
:104510001092FC021092FE021092FD02D1CF809305
:10452000FC0220E040E0612F81E090E00E941D034A
:104530001092FC02C5CF8093FC02C2CF103FD9F08D
:10454000173F31F72091FD023091FE02C901B601FB
:104550000E943B24FC01E952FD4F12A3C9010196C0
:104560009093FE028093FD022091FB024091FA029B
:104570006091F902DBCF4092FC021093F902709235
:10458000FE026092FD029CCF552009F499CF209144
:10459000FD023091FE02C901B6010E943B24AC012C
:1045A000FC01E952FD4F12A3C90101969093FE024E
:1045B0008093FD024130510589F04230510509F0E8
:1045C0007FCF2091FB024091FA026091F9020E9494
:1045D0001D038091FC02843091F672CFE2E020E06E
:1045E0005E126ECFF0CF890F87FD03C080935C020F
:1045F000DDCE8FE7FBCF1A828CE08B8324C08A81CB
:10460000823009F425C128F4813061F08FEF89836D
:104610001AC0833009F18430C9F71B821C821D82C5
:104620001E8211C02FB7F8946091820270918302AC
:1046300080918402909185022FBF0E9469246B8330
:104640007C838D839E8340E250E0BE016F5F7F4F8D
:1046500082E00E94890BDDCC2B81822F90E0FE014D
:104660003496245E8930910570F7DC01AB59BD4F5B
:104670003C91319301962813F5CFE5CF8A818230A2
:1046800019F0853001F3C2CF6B817C818D819E81D1
:104690000E94692488E290E00E94C524D4CF4C8116
:1046A0006B818A810E94650C9827892798279E83B1
:1046B0008D83C9CF2D813E813227232732274C811C
:1046C0006B818A810E94DE0BBECF0E94040CBBCF9F
:1046D00080E18A83B8CF81E08A838BEB8ECFEA803A
:1046E000FB80FE24EF24FE24CE0101963C018C8049
:1046F000DC01A80DB11D4D01C7018B5B9D4F8614D8
:10470000970409F4A0CFBBEBEB16B1E0FB0658F41D
:104710000E94A724F3018483BFEFEB1AFB0AEFEF9B
:104720006E1A7E0AE9CFD30114961C92F5CFEA8067
:10473000FB80FE24EF24FE24AE014F5F5F4F3A0161
:104740008C808E0C9F2C911CC7018B5B9D4F8E140F
:104750009F0409F478CF5BEBE51651E0F50628F4E9
:10476000D30114966C910E94C524BFEF6B1A7B0A8B
:10477000EFEFEE1AFE0AE8CF0E94CE0B64CF85E081
:10478000A8CFEA80FB80FE24EF24FE24AE014F5F19
:104790005F4F3A018C80CA01880D911D4C01C70101
:1047A00089966814790409F44ECFACE1EA16A2E0C8
:1047B000FA0658F40E94A724F3018483BFEFEB1A92
:1047C000FB0AEFEF6E1A7E0AEACFD30114961C9211
:1047D000F5CFEA80FB80FE24EF24FE24AE014F5F7C
:1047E0005F4F3A018C808E0C9F2C911CC7018996DB
:1047F0008E149F0409F427CF5CE1E51652E0F5061C
:1048000028F4D30114966C910E94C524BFEF6B1A53
:104810007B0AEFEFEE1AFE0AE9CFF9BC19BD09B425
:1048200000FEFDCF8091D8008F7D8093D8008091CD
:10483000E00082608093E0008091E00081FDFCCF89
:104840000E94930D74CC822B892B09F448CD45CD61
:1048500088E290E00E94A7241B821C821D828E8326
:10486000F2CE2B30310508F0E9CC1CCD2B303105D0
:1048700008F09BCCCECCAA1BBB1B51E107C0AA1FE2
:10488000BB1FA617B70710F0A61BB70B881F991FF1
:104890005A95A9F780959095BC01CD01089597FB95
:1048A000072E16F4009407D077FD09D00E943B2410
:1048B00007FC05D03EF4909581959F4F0895709523
:1048C00061957F4F0895EE0FFF1F0590F491E02D45
:1048D00009946927962769277827872778270895D5
:1048E0002F923F924F925F926F927F928F929F9200
:1048F000AF92BF92CF92DF92EF92FF920F931F93EE
:10490000CF93DF93CDB7DEB7CA1BDB0B0FB6F8949E
:10491000DEBF0FBECDBF09942A88398848885F84DE
:104920006E847D848C849B84AA84B984C884DF804F
:10493000EE80FD800C811B81AA81B981CE0FD11D33
:104940000FB6F894DEBF0FBECDBFED010895F99903
:10495000FECF92BD81BDF89A992780B50895A8E150
:10496000B0E042E050E00C94EB24DC01A40FB51F52
:104970004150504048F0CB01840F951F2E910E946A
:10498000C62441505040D0F70895262FF999FECF04
:1049900092BD81BDF89A019700B4021639F01FBA92
:1049A00020BD0FB6F894FA9AF99A0FBE08950396AF
:1049B000272F0E94C6240E94C524252F0E94C624AA
:1049C000242F0C94C6240196272F0E94C6240C94F1
:1049D000C524DC01CB01FC01F999FECF06C0F2BD74
:1049E000E1BDF89A319600B40D9241505040B8F7AD
:1049F0000895FB01DC0104C08D910190801921F420
:104A000041505040C8F7881B990B0895F894FFCF88
:104A10009B0EC30E7110C30E7110F60E170F71109E
:104A2000151022107D1581157215791585158915BA
:104A30008D15E6155B16EE15B815BC15F215C015EB
:104A4000F6150216CC155416D0150616D4150A16EE
:104A50003216D8150E163916DE1514161C16C41586
:104A6000FA15C815FE15E215181628164216521624
:104A7000B215EA156216AE16AE16E616E6169717CA
:104A8000B1170E170E17B617211830183018FB2261
:104A9000FF223E234F235A236523062306230623A2
:104AA0000623062368236B236F239723BC23BF238E
:044AB000C123E92312
:104AB400AE05BA0BB30BAC0B0485400000010640F5
:104AC4000000010001818283E200E900EA00B500F0
:104AD400B600B700CD008301CC008A019201940195
:104AE4002102230224022502260227022A02B300FD
:104AF400B4006F0070009F01CB019F02A00293924B
:104B040090946697C63435F4F5F6F7313302030210
:104B140000000100010101010100010144227B495F
:0C4B2400012701AC006B048404A4040011
:00000001FF
